{
  "contractName": "UBI",
  "abi": [
    {
      "inputs": [],
      "payable": false,
      "stateMutability": "nonpayable",
      "type": "constructor"
    },
    {
      "anonymous": false,
      "inputs": [
        {
          "indexed": false,
          "internalType": "address",
          "name": "account",
          "type": "address"
        }
      ],
      "name": "Paused",
      "type": "event"
    },
    {
      "anonymous": false,
      "inputs": [
        {
          "indexed": true,
          "internalType": "address",
          "name": "account",
          "type": "address"
        }
      ],
      "name": "PauserAdded",
      "type": "event"
    },
    {
      "anonymous": false,
      "inputs": [
        {
          "indexed": true,
          "internalType": "address",
          "name": "account",
          "type": "address"
        }
      ],
      "name": "PauserRemoved",
      "type": "event"
    },
    {
      "anonymous": false,
      "inputs": [
        {
          "indexed": false,
          "internalType": "address",
          "name": "account",
          "type": "address"
        }
      ],
      "name": "Unpaused",
      "type": "event"
    },
    {
      "anonymous": false,
      "inputs": [
        {
          "indexed": false,
          "internalType": "uint256",
          "name": "payTime",
          "type": "uint256"
        }
      ],
      "name": "payOnTime",
      "type": "event"
    },
    {
      "constant": false,
      "inputs": [
        {
          "internalType": "address",
          "name": "account",
          "type": "address"
        }
      ],
      "name": "addPauser",
      "outputs": [],
      "payable": false,
      "stateMutability": "nonpayable",
      "type": "function"
    },
    {
      "constant": true,
      "inputs": [
        {
          "internalType": "address",
          "name": "",
          "type": "address"
        }
      ],
      "name": "beneficiaries",
      "outputs": [
        {
          "internalType": "bool",
          "name": "",
          "type": "bool"
        }
      ],
      "payable": false,
      "stateMutability": "view",
      "type": "function"
    },
    {
      "constant": true,
      "inputs": [],
      "name": "deposits",
      "outputs": [
        {
          "internalType": "uint256",
          "name": "",
          "type": "uint256"
        }
      ],
      "payable": false,
      "stateMutability": "view",
      "type": "function"
    },
    {
      "constant": true,
      "inputs": [
        {
          "internalType": "address",
          "name": "account",
          "type": "address"
        }
      ],
      "name": "isPauser",
      "outputs": [
        {
          "internalType": "bool",
          "name": "",
          "type": "bool"
        }
      ],
      "payable": false,
      "stateMutability": "view",
      "type": "function"
    },
    {
      "constant": false,
      "inputs": [],
      "name": "pause",
      "outputs": [],
      "payable": false,
      "stateMutability": "nonpayable",
      "type": "function"
    },
    {
      "constant": true,
      "inputs": [],
      "name": "paused",
      "outputs": [
        {
          "internalType": "bool",
          "name": "",
          "type": "bool"
        }
      ],
      "payable": false,
      "stateMutability": "view",
      "type": "function"
    },
    {
      "constant": false,
      "inputs": [],
      "name": "renouncePauser",
      "outputs": [],
      "payable": false,
      "stateMutability": "nonpayable",
      "type": "function"
    },
    {
      "constant": false,
      "inputs": [],
      "name": "unpause",
      "outputs": [],
      "payable": false,
      "stateMutability": "nonpayable",
      "type": "function"
    },
    {
      "constant": false,
      "inputs": [],
      "name": "updateClaimTime",
      "outputs": [],
      "payable": false,
      "stateMutability": "nonpayable",
      "type": "function"
    },
    {
      "constant": false,
      "inputs": [],
      "name": "deposit",
      "outputs": [],
      "payable": true,
      "stateMutability": "payable",
      "type": "function"
    },
    {
      "constant": false,
      "inputs": [
        {
          "internalType": "address payable",
          "name": "beneficiary",
          "type": "address"
        }
      ],
      "name": "addBeneficiary",
      "outputs": [],
      "payable": true,
      "stateMutability": "payable",
      "type": "function"
    },
    {
      "constant": false,
      "inputs": [],
      "name": "withdraw",
      "outputs": [],
      "payable": false,
      "stateMutability": "nonpayable",
      "type": "function"
    }
  ],
  "bytecode": "0x6080604052600560035534801561001557600080fd5b506100326100276100a160201b60201c565b6100a960201b60201c565b6000600160006101000a81548160ff02191690831515021790555033600760006101000a81548173ffffffffffffffffffffffffffffffffffffffff021916908373ffffffffffffffffffffffffffffffffffffffff16021790555061009c61010760201b60201c565b6102d4565b600033905090565b6100c181600061011460201b610e451790919060201c565b8073ffffffffffffffffffffffffffffffffffffffff167f6719d08c1888103bea251a4ed56406bd0c3e69723c8a1686e017e7bbe159b6f860405160405180910390a250565b6003544201600281905550565b61012482826101f560201b60201c565b15610197576040517f08c379a000000000000000000000000000000000000000000000000000000000815260040180806020018281038252601f8152602001807f526f6c65733a206163636f756e7420616c72656164792068617320726f6c650081525060200191505060405180910390fd5b60018260000160008373ffffffffffffffffffffffffffffffffffffffff1673ffffffffffffffffffffffffffffffffffffffff16815260200190815260200160002060006101000a81548160ff0219169083151502179055505050565b60008073ffffffffffffffffffffffffffffffffffffffff168273ffffffffffffffffffffffffffffffffffffffff16141561027d576040517f08c379a0000000000000000000000000000000000000000000000000000000008152600401808060200182810382526022815260200180620012ac6022913960400191505060405180910390fd5b8260000160008373ffffffffffffffffffffffffffffffffffffffff1673ffffffffffffffffffffffffffffffffffffffff16815260200190815260200160002060009054906101000a900460ff16905092915050565b610fc880620002e46000396000f3fe6080604052600436106100a75760003560e01c80635c975abb116100645780635c975abb1461021b5780636d8d37ed1461024a5780636ef8d66d1461026157806382dc1ec4146102785780638456cb59146102c9578063d0e30db0146102e0576100a7565b806301567739146100ac578063323a5e0b146101155780633ccfd60b146101405780633f4ba83a1461015757806346fbf68e1461016e5780635926651d146101d7575b600080fd5b3480156100b857600080fd5b506100fb600480360360208110156100cf57600080fd5b81019080803573ffffffffffffffffffffffffffffffffffffffff1690602001909291905050506102ea565b604051808215151515815260200191505060405180910390f35b34801561012157600080fd5b5061012a61030a565b6040518082815260200191505060405180910390f35b34801561014c57600080fd5b50610155610310565b005b34801561016357600080fd5b5061016c610590565b005b34801561017a57600080fd5b506101bd6004803603602081101561019157600080fd5b81019080803573ffffffffffffffffffffffffffffffffffffffff1690602001909291905050506106fe565b604051808215151515815260200191505060405180910390f35b610219600480360360208110156101ed57600080fd5b81019080803573ffffffffffffffffffffffffffffffffffffffff16906020019092919050505061071b565b005b34801561022757600080fd5b50610230610927565b604051808215151515815260200191505060405180910390f35b34801561025657600080fd5b5061025f61093e565b005b34801561026d57600080fd5b5061027661094b565b005b34801561028457600080fd5b506102c76004803603602081101561029b57600080fd5b81019080803573ffffffffffffffffffffffffffffffffffffffff16906020019092919050505061095d565b005b3480156102d557600080fd5b506102de6109ce565b005b6102e8610b3c565b005b60086020528060005260406000206000915054906101000a900460ff1681565b60065481565b6002544211610387576040517f08c379a000000000000000000000000000000000000000000000000000000000815260040180806020018281038252600c8152602001807f6f6e6c794f6e506179446179000000000000000000000000000000000000000081525060200191505060405180910390fd5b600160009054906101000a900460ff161561040a576040517f08c379a00000000000000000000000000000000000000000000000000000000081526004018080602001828103825260108152602001807f5061757361626c653a207061757365640000000000000000000000000000000081525060200191505060405180910390fd5b60011515600860003373ffffffffffffffffffffffffffffffffffffffff1673ffffffffffffffffffffffffffffffffffffffff16815260200190815260200160002060009054906101000a900460ff161515146104d0576040517f08c379a00000000000000000000000000000000000000000000000000000000081526004018080602001828103825260108152602001807f4f6e6c792042656e65666963696172790000000000000000000000000000000081525060200191505060405180910390fd5b6000600860003373ffffffffffffffffffffffffffffffffffffffff1673ffffffffffffffffffffffffffffffffffffffff16815260200190815260200160002060006101000a81548160ff0219169083151502179055503373ffffffffffffffffffffffffffffffffffffffff166108fc6501d1a94a20009081150290604051600060405180830381858888f19350505050158015610574573d6000803e3d6000fd5b5061057d61093e565b6001600460008282540392505081905550565b6105a061059b610bee565b6106fe565b6105f5576040517f08c379a0000000000000000000000000000000000000000000000000000000008152600401808060200182810382526030815260200180610f216030913960400191505060405180910390fd5b600160009054906101000a900460ff16610677576040517f08c379a00000000000000000000000000000000000000000000000000000000081526004018080602001828103825260148152602001807f5061757361626c653a206e6f742070617573656400000000000000000000000081525060200191505060405180910390fd5b6000600160006101000a81548160ff0219169083151502179055507f5db9ee0a495bf2e6ff9c91a7834c1ba4fdd244a5e8aa4e537bd38aeae4b073aa6106bb610bee565b604051808273ffffffffffffffffffffffffffffffffffffffff1673ffffffffffffffffffffffffffffffffffffffff16815260200191505060405180910390a1565b6000610714826000610bf690919063ffffffff16565b9050919050565b600760009054906101000a900473ffffffffffffffffffffffffffffffffffffffff1673ffffffffffffffffffffffffffffffffffffffff163373ffffffffffffffffffffffffffffffffffffffff16146107de576040517f08c379a00000000000000000000000000000000000000000000000000000000081526004018080602001828103825260098152602001807f4f6e79204167656e74000000000000000000000000000000000000000000000081525060200191505060405180910390fd5b600160009054906101000a900460ff1615610861576040517f08c379a00000000000000000000000000000000000000000000000000000000081526004018080602001828103825260108152602001807f5061757361626c653a207061757365640000000000000000000000000000000081525060200191505060405180910390fd5b60001515600860008373ffffffffffffffffffffffffffffffffffffffff1673ffffffffffffffffffffffffffffffffffffffff16815260200190815260200160002060009054906101000a900460ff16151514156108cc5760016004600082825401925050819055505b6001600860008373ffffffffffffffffffffffffffffffffffffffff1673ffffffffffffffffffffffffffffffffffffffff16815260200190815260200160002060006101000a81548160ff02191690831515021790555050565b6000600160009054906101000a900460ff16905090565b6003544201600281905550565b61095b610956610bee565b610cd4565b565b61096d610968610bee565b6106fe565b6109c2576040517f08c379a0000000000000000000000000000000000000000000000000000000008152600401808060200182810382526030815260200180610f216030913960400191505060405180910390fd5b6109cb81610d2e565b50565b6109de6109d9610bee565b6106fe565b610a33576040517f08c379a0000000000000000000000000000000000000000000000000000000008152600401808060200182810382526030815260200180610f216030913960400191505060405180910390fd5b600160009054906101000a900460ff1615610ab6576040517f08c379a00000000000000000000000000000000000000000000000000000000081526004018080602001828103825260108152602001807f5061757361626c653a207061757365640000000000000000000000000000000081525060200191505060405180910390fd5b60018060006101000a81548160ff0219169083151502179055507f62e78cea01bee320cd4e420270b5ea74000d11b0c9f74754ebdbfc544b05a258610af9610bee565b604051808273ffffffffffffffffffffffffffffffffffffffff1673ffffffffffffffffffffffffffffffffffffffff16815260200191505060405180910390a1565b600160009054906101000a900460ff1615610bbf576040517f08c379a00000000000000000000000000000000000000000000000000000000081526004018080602001828103825260108152602001807f5061757361626c653a207061757365640000000000000000000000000000000081525060200191505060405180910390fd5b3460066000828254019250508190555060646002340281610bdc57fe5b04600560008282540192505081905550565b600033905090565b60008073ffffffffffffffffffffffffffffffffffffffff168273ffffffffffffffffffffffffffffffffffffffff161415610c7d576040517f08c379a0000000000000000000000000000000000000000000000000000000008152600401808060200182810382526022815260200180610f726022913960400191505060405180910390fd5b8260000160008373ffffffffffffffffffffffffffffffffffffffff1673ffffffffffffffffffffffffffffffffffffffff16815260200190815260200160002060009054906101000a900460ff16905092915050565b610ce8816000610d8890919063ffffffff16565b8073ffffffffffffffffffffffffffffffffffffffff167fcd265ebaf09df2871cc7bd4133404a235ba12eff2041bb89d9c714a2621c7c7e60405160405180910390a250565b610d42816000610e4590919063ffffffff16565b8073ffffffffffffffffffffffffffffffffffffffff167f6719d08c1888103bea251a4ed56406bd0c3e69723c8a1686e017e7bbe159b6f860405160405180910390a250565b610d928282610bf6565b610de7576040517f08c379a0000000000000000000000000000000000000000000000000000000008152600401808060200182810382526021815260200180610f516021913960400191505060405180910390fd5b60008260000160008373ffffffffffffffffffffffffffffffffffffffff1673ffffffffffffffffffffffffffffffffffffffff16815260200190815260200160002060006101000a81548160ff0219169083151502179055505050565b610e4f8282610bf6565b15610ec2576040517f08c379a000000000000000000000000000000000000000000000000000000000815260040180806020018281038252601f8152602001807f526f6c65733a206163636f756e7420616c72656164792068617320726f6c650081525060200191505060405180910390fd5b60018260000160008373ffffffffffffffffffffffffffffffffffffffff1673ffffffffffffffffffffffffffffffffffffffff16815260200190815260200160002060006101000a81548160ff021916908315150217905550505056fe506175736572526f6c653a2063616c6c657220646f6573206e6f742068617665207468652050617573657220726f6c65526f6c65733a206163636f756e7420646f6573206e6f74206861766520726f6c65526f6c65733a206163636f756e7420697320746865207a65726f2061646472657373a265627a7a72315820a722a856a191124809a7044f4fcd199057729f6277ec29b3cd8935114dc4d78e64736f6c634300050c0032526f6c65733a206163636f756e7420697320746865207a65726f2061646472657373",
  "source": "pragma solidity ^0.5.0;\r\n\r\nimport '../node_modules/openzeppelin-solidity/contracts/lifecycle/Pausable.sol';\r\n//import 'github.com/OpenZeppelin/zeppelin-solidity/contracts/lifecycle/Pausable.sol';\r\n\r\n/** @title Universal Block Income (UBI) */\r\ncontract UBI is Pausable {\r\n    uint payTime; //This is the total time the user has to claim a new UBI adding to the time taken by the user when claiming the UBI last time\r\n    uint claimWaitSeconds = 5; //24 Hours for PROD i.e.86400 seconds, 5 seconds are mentioned for testing purpose\r\n    uint beneficiaryCount; //No. Of people who claimed the UBI\r\n    uint interest; //ROI received on investing in foundation capital.\r\n    uint public deposits; //Must be set to private for PROD.Deposits are teh amount donated to foundation capital.\r\n    address private agent;// Agent Address\r\n    mapping(address => bool) public beneficiaries; //Must be set to Private for PROD. Beneficiaries claim the UBI.\r\n\r\n    constructor() public{\r\n        agent = msg.sender;\r\n        updateClaimTime();\r\n    }\r\n    event payOnTime(\r\n        uint payTime\r\n    );\r\n    /** @dev Updates a time, when a claim is made with additional 24 hours\r\n      *  now = current block timestamp\r\n      *  claimWaitSeconds is specified in the variables on the top\r\n      */\r\n    function updateClaimTime() public {\r\n        payTime = now + claimWaitSeconds;\r\n    }\r\n    /** @dev donor can deposit an amount to an account accessible by the beneficiaries\r\n      */\r\n    function deposit()\r\n    external //Only people from Outside can call It.\r\n    whenNotPaused()\r\n    payable {\r\n        deposits += msg.value;\r\n        interest += (msg.value * 2) / 100;\r\n    }\r\n    /** @dev adds a UBI beneficiary to a mapping\r\n      *  adds a beneficiary if the beneficiary isn't in the mapping yet\r\n      *  beneficiaryCount is number of beneficiaries\r\n      *  @param beneficiary address of beneficiary\r\n      */\r\n    function addBeneficiary(address payable beneficiary) external onlyAgent() whenNotPaused() payable {\r\n        if (beneficiaries[beneficiary] == false){\r\n            beneficiaryCount += 1;\r\n        }\r\n        beneficiaries[beneficiary] = true;\r\n    }\r\n    /** @dev Beneficiary can withdraw her/his share of the UBI\r\n      *  interest available in deposit account is divided by the count of beneficiaries\r\n      *  time of claim is updated, that beneficiaries can't claim multiple times in 24 hours\r\n      *  beneficiary count is reset\r\n      */\r\n    function withdraw() public onlyOnPayDay() whenNotPaused() onlyBeneficiary() {\r\n        beneficiaries[msg.sender] = false;\r\n        msg.sender.transfer(2000000000000); //Arbitrary Number which can be replaced by an\r\n        //Interest Function after dividing the total interest among number of beneficiaries.\r\n        //Also gas fee can be deducted from the interest earned.\r\n        updateClaimTime();\r\n        beneficiaryCount -= 1;\r\n        \r\n    }\r\n    /** @dev defines owner of contract\r\n      */\r\n    modifier onlyAgent(){\r\n        require(msg.sender == agent, \"Ony Agent\");\r\n        _;\r\n    }\r\n    /** @dev defines who is a beneficiary\r\n      */\r\n    modifier onlyBeneficiary() {\r\n        require(beneficiaries[msg.sender] == true, \"Only Beneficiary\");\r\n        _;\r\n    }\r\n    /** @dev defines when future withdrawal will be possible\r\n      */\r\n    modifier onlyOnPayDay() {\r\n        require(now > payTime, \"onlyOnPayDay\");\r\n        _;\r\n    }\r\n}\r\n\r\n",
  "sourcePath": "/mnt/c/users/shahida/downloads/universal/contracts/UBI.sol",
  "compiler": {
    "name": "solc",
    "version": "0.5.12+commit.7709ece9.Emscripten.clang"
  },
  "schemaVersion": "3.0.20",
  "updatedAt": "2020-01-26T10:56:00.095Z",
  "devdoc": {
    "methods": {
      "addBeneficiary(address)": {
        "details": "adds a UBI beneficiary to a mapping adds a beneficiary if the beneficiary isn't in the mapping yet beneficiaryCount is number of beneficiaries",
        "params": {
          "beneficiary": "address of beneficiary"
        }
      },
      "deposit()": {
        "details": "donor can deposit an amount to an account accessible by the beneficiaries"
      },
      "pause()": {
        "details": "Called by a pauser to pause, triggers stopped state."
      },
      "paused()": {
        "details": "Returns true if the contract is paused, and false otherwise."
      },
      "unpause()": {
        "details": "Called by a pauser to unpause, returns to normal state."
      },
      "updateClaimTime()": {
        "details": "Updates a time, when a claim is made with additional 24 hours now = current block timestamp claimWaitSeconds is specified in the variables on the top"
      },
      "withdraw()": {
        "details": "Beneficiary can withdraw her/his share of the UBI interest available in deposit account is divided by the count of beneficiaries time of claim is updated, that beneficiaries can't claim multiple times in 24 hours beneficiary count is reset"
      }
    },
    "title": "Universal Block Income (UBI) "
  },
  "userdoc": {
    "methods": {}
  }
}